{
  "abi": [
    {
      "inputs": [
        {
          "internalType": "bytes",
          "name": "data",
          "type": "bytes"
        },
        {
          "internalType": "uint256",
          "name": "start",
          "type": "uint256"
        },
        {
          "internalType": "uint256",
          "name": "end",
          "type": "uint256"
        }
      ],
      "name": "Slice_OutOfBounds",
      "type": "error"
    },
    {
      "anonymous": false,
      "inputs": [
        {
          "indexed": true,
          "internalType": "ResourceId",
          "name": "tableId",
          "type": "bytes32"
        },
        {
          "indexed": false,
          "internalType": "bytes32[]",
          "name": "keyTuple",
          "type": "bytes32[]"
        }
      ],
      "name": "Store_DeleteRecord",
      "type": "event"
    },
    {
      "anonymous": false,
      "inputs": [
        {
          "indexed": true,
          "internalType": "ResourceId",
          "name": "tableId",
          "type": "bytes32"
        },
        {
          "indexed": false,
          "internalType": "bytes32[]",
          "name": "keyTuple",
          "type": "bytes32[]"
        },
        {
          "indexed": false,
          "internalType": "bytes",
          "name": "staticData",
          "type": "bytes"
        },
        {
          "indexed": false,
          "internalType": "PackedCounter",
          "name": "encodedLengths",
          "type": "bytes32"
        },
        {
          "indexed": false,
          "internalType": "bytes",
          "name": "dynamicData",
          "type": "bytes"
        }
      ],
      "name": "Store_SetRecord",
      "type": "event"
    },
    {
      "anonymous": false,
      "inputs": [
        {
          "indexed": true,
          "internalType": "ResourceId",
          "name": "tableId",
          "type": "bytes32"
        },
        {
          "indexed": false,
          "internalType": "bytes32[]",
          "name": "keyTuple",
          "type": "bytes32[]"
        },
        {
          "indexed": false,
          "internalType": "uint48",
          "name": "start",
          "type": "uint48"
        },
        {
          "indexed": false,
          "internalType": "bytes",
          "name": "data",
          "type": "bytes"
        }
      ],
      "name": "Store_SpliceStaticData",
      "type": "event"
    },
    {
      "inputs": [],
      "name": "_msgSender",
      "outputs": [
        {
          "internalType": "address",
          "name": "sender",
          "type": "address"
        }
      ],
      "stateMutability": "view",
      "type": "function"
    },
    {
      "inputs": [],
      "name": "_msgValue",
      "outputs": [
        {
          "internalType": "uint256",
          "name": "value",
          "type": "uint256"
        }
      ],
      "stateMutability": "pure",
      "type": "function"
    },
    {
      "inputs": [],
      "name": "_world",
      "outputs": [
        {
          "internalType": "address",
          "name": "",
          "type": "address"
        }
      ],
      "stateMutability": "view",
      "type": "function"
    },
    {
      "inputs": [
        {
          "internalType": "string",
          "name": "description",
          "type": "string"
        }
      ],
      "name": "addTask",
      "outputs": [
        {
          "internalType": "bytes32",
          "name": "key",
          "type": "bytes32"
        }
      ],
      "stateMutability": "nonpayable",
      "type": "function"
    },
    {
      "inputs": [
        {
          "internalType": "bytes32",
          "name": "key",
          "type": "bytes32"
        }
      ],
      "name": "completeTask",
      "outputs": [],
      "stateMutability": "nonpayable",
      "type": "function"
    },
    {
      "inputs": [
        {
          "internalType": "bytes32",
          "name": "key",
          "type": "bytes32"
        }
      ],
      "name": "deleteTask",
      "outputs": [],
      "stateMutability": "nonpayable",
      "type": "function"
    },
    {
      "inputs": [
        {
          "internalType": "bytes32",
          "name": "key",
          "type": "bytes32"
        }
      ],
      "name": "resetTask",
      "outputs": [],
      "stateMutability": "nonpayable",
      "type": "function"
    },
    {
      "inputs": [
        {
          "internalType": "bytes4",
          "name": "interfaceId",
          "type": "bytes4"
        }
      ],
      "name": "supportsInterface",
      "outputs": [
        {
          "internalType": "bool",
          "name": "",
          "type": "bool"
        }
      ],
      "stateMutability": "pure",
      "type": "function"
    }
  ],
  "bytecode": {
    "object": "0x608060405234801561001057600080fd5b50611d7c806100206000396000f3fe608060405234801561001057600080fd5b50600436106100885760003560e01c80637c0390f71161005b5780637c0390f71461010a578063e1af802c1461011f578063e64f15a214610127578063ec5c29ce1461013a57600080fd5b806301ffc9a71461008d578063119df25f146100b557806345ec9354146100e257806367238562146100f7575b600080fd5b6100a061009b3660046117f7565b61014d565b60405190151581526020015b60405180910390f35b6100bd6101e6565b60405173ffffffffffffffffffffffffffffffffffffffff90911681526020016100ac565b36601f1901355b6040519081526020016100ac565b6100e961010536600461184f565b6101f5565b61011d610118366004611900565b610255565b005b6100bd610262565b61011d610135366004611900565b61026c565b61011d610148366004611900565b610275565b60007fffffffff0000000000000000000000000000000000000000000000000000000082167fb42128800000000000000000000000000000000000000000000000000000000014806101e057507fffffffff0000000000000000000000000000000000000000000000000000000082167f01ffc9a700000000000000000000000000000000000000000000000000000000145b92915050565b60006101f0610280565b905090565b6000446102006101e6565b8360405160200161021393929190611969565b60405160208183030381529060405280519060200120905061025081604051806060016040528042815260200160008152602001858152506102b2565b919050565b61025f81426103aa565b50565b60006101f0610495565b61025f816104dc565b61025f8160006103aa565b7fffffffffffffffffffffffffffffffffffffffffffffffffffffffffffffffcc36013560601c806102af5750335b90565b8051602080830151604080519283019390935281830152815180820383018152606090910190915260006102e98360400151610581565b905060006102fa8460400151610591565b60408051600180825281830190925291925060009190602080830190803683370190505090508581600081518110610334576103346119a7565b60209081029190910181019190915260408051613a3160f11b81840152600060228201527f5461736b73000000000000000000000000000000000000000000000000000000603082015281518082039093018352810190526103a290610399906119bd565b828686866105ba565b505050505050565b6040805160018082528183019092526000916020808301908036833701905050905082816000815181106103e0576103e06119a7565b60209081029190910181019190915260408051613a3160f11b81840152600060228201527f5461736b730000000000000000000000000000000000000000000000000000006030820152815180820390930183528101905261049090610445906119bd565b8260018560405160200161045b91815260200190565b60408051601f198184030181529190527e40020120200000000000000000000000000000000000000000000000000000610689565b505050565b7f629a4c26e296b22a8e0856e9f6ecb2d1008d7e00081111962cd175fa7488e1755460009073ffffffffffffffffffffffffffffffffffffffff1680610250573391505090565b604080516001808252818301909252600091602080830190803683370190505090508181600081518110610512576105126119a7565b60209081029190910181019190915260408051613a3160f11b81840152600060228201527f5461736b730000000000000000000000000000000000000000000000000000006030820152815180820390930183528101905261057d90610577906119bd565b82610719565b5050565b60006101e08251603881901b1790565b6060816040516020016105a491906119e4565b6040516020818303038152906040529050919050565b60006105c4610495565b90503073ffffffffffffffffffffffffffffffffffffffff8216036105f5576105f086868686866107d7565b6103a2565b6040517f298314fb00000000000000000000000000000000000000000000000000000000815273ffffffffffffffffffffffffffffffffffffffff82169063298314fb9061064f9089908990899089908990600401611a3b565b600060405180830381600087803b15801561066957600080fd5b505af115801561067d573d6000803e3d6000fd5b50505050505050505050565b6000610693610495565b90503073ffffffffffffffffffffffffffffffffffffffff8216036106bf576105f086868686866107f4565b6040517f390baae000000000000000000000000000000000000000000000000000000000815273ffffffffffffffffffffffffffffffffffffffff82169063390baae09061064f9089908990899089908990600401611a8c565b6000610723610495565b90503073ffffffffffffffffffffffffffffffffffffffff82160361074c576104908383610809565b6040517f505a181d00000000000000000000000000000000000000000000000000000000815273ffffffffffffffffffffffffffffffffffffffff82169063505a181d906107a09086908690600401611ad3565b600060405180830381600087803b1580156107ba57600080fd5b505af11580156107ce573d6000803e3d6000fd5b50505050505050565b6107ed85858585856107e88b61081c565b61094a565b5050505050565b6107ed85856108038487610c39565b85610c7c565b61057d82826108178561081c565b610edb565b60408051613a3160f11b60208201527f73746f726500000000000000000000000000000000000000000000000000000060228201527f5461626c65730000000000000000000000000000000000000000000000000000603082015260009101604051602081830303815290604052610893906119bd565b82036108bf57507e60030220202000000000000000000000000000000000000000000000000000919050565b60408051613a3160f11b60208201527f73746f726500000000000000000000000000000000000000000000000000000060228201527f5461626c6573000000000000000000000000000000000000000000000000000060308201526101e091610941910160405160208183030381529060405261093b906119bd565b8461119b565b602060006111f4565b857f8dbb3a9672eebfd3773e72dd9c102393436816d832c7ba9e1e1ac8fcadcac7a9868686866040516109809493929190611aec565b60405180910390a2613a3160f11b867fffff00000000000000000000000000000000000000000000000000000000000016036103a25760006109c187611245565b905060005b8151811015610aa45760008282815181106109e3576109e36119a7565b60200260200101519050610a0f6001826affffffffffffffffffffff191661132d90919063ffffffff16565b15610a91576040517f57066c9c000000000000000000000000000000000000000000000000000000008152606082901c906357066c9c90610a5e908c908c908c908c908c908c90600401611b36565b600060405180830381600087803b158015610a7857600080fd5b505af1158015610a8c573d6000803e3d6000fd5b505050505b5080610a9c81611ba5565b9150506109c6565b506000610ab1888861134b565b90506000602087019050610ac9826000838a51611360565b6000610ad485611420565b1115610b58576000610ae68a8a61145d565b878155905060208601915060008060005b610b0088611420565b8160ff161015610b5357610b158d8d836114b3565b9250610b308a8260ff166028026038011c64ffffffffff1690565b9150610b3f8360008785611360565b610b498286611bbf565b9450600101610af7565b505050505b60005b835181101561067d576000848281518110610b7857610b786119a7565b60200260200101519050610ba46002826affffffffffffffffffffff191661132d90919063ffffffff16565b15610c26576040517f5b28cdaf000000000000000000000000000000000000000000000000000000008152606082901c90635b28cdaf90610bf3908e908e908e908e908e908e90600401611b36565b600060405180830381600087803b158015610c0d57600080fd5b505af1158015610c21573d6000803e3d6000fd5b505050505b5080610c3181611ba5565b915050610b5b565b600080805b8360ff16811015610c7457610c6060ff601b83900360080287901c1683611bbf565b915080610c6c81611ba5565b915050610c3e565b509392505050565b6000610c88858561134b565b9050847f8c0b5119d4cec7b284c6b1b39252a03d1e2f2d7451a5895562524c113bb952be858585604051610cbe93929190611bd2565b60405180910390a2613a3160f11b857fffff0000000000000000000000000000000000000000000000000000000000001614610cfa5750610ed5565b6000610d0586611245565b905060005b8151811015610de4576000828281518110610d2757610d276119a7565b60200260200101519050610d536004826affffffffffffffffffffff191661132d90919063ffffffff16565b15610dd1576040517f964f667d000000000000000000000000000000000000000000000000000000008152606082901c9063964f667d90610d9e908b908b908b908b90600401611c0f565b600060405180830381600087803b158015610db857600080fd5b505af1158015610dcc573d6000803e3d6000fd5b505050505b5080610ddc81611ba5565b915050610d0a565b50610df8828565ffffffffffff1685611533565b60005b81518110156107ce576000828281518110610e1857610e186119a7565b60200260200101519050610e446008826affffffffffffffffffffff191661132d90919063ffffffff16565b15610ec2576040517fa8ba8721000000000000000000000000000000000000000000000000000000008152606082901c9063a8ba872190610e8f908b908b908b908b90600401611c0f565b600060405180830381600087803b158015610ea957600080fd5b505af1158015610ebd573d6000803e3d6000fd5b505050505b5080610ecd81611ba5565b915050610dfb565b50505050565b827f0e1f72f429eb97e64878619984a91e687ae91610348b9ff4216782cc96e49d0783604051610f0b9190611c48565b60405180910390a2613a3160f11b837fffff0000000000000000000000000000000000000000000000000000000000001614610f4657505050565b6000610f5184611245565b905060005b815181101561102e576000828281518110610f7357610f736119a7565b60200260200101519050610f9f6040826affffffffffffffffffffff191661132d90919063ffffffff16565b1561101b576040517f9faeaf45000000000000000000000000000000000000000000000000000000008152606082901c90639faeaf4590610fe890899089908990600401611c5b565b600060405180830381600087803b15801561100257600080fd5b505af1158015611016573d6000803e3d6000fd5b505050505b508061102681611ba5565b915050610f56565b50600061103b858561134b565b905061109481600061104c86611543565b67ffffffffffffffff81111561106457611064611839565b6040519080825280601f01601f19166020018201604052801561108e576020820181803683370190505b50611533565b600061109f84611420565b11156110c05760006110b1868661145d565b90506110be816020611566565b505b60005b82518110156103a25760008382815181106110e0576110e06119a7565b6020026020010151905061110c6080826affffffffffffffffffffff191661132d90919063ffffffff16565b15611188576040517f83b5c95b000000000000000000000000000000000000000000000000000000008152606082901c906383b5c95b90611155908a908a908a90600401611c5b565b600060405180830381600087803b15801561116f57600080fd5b505af1158015611183573d6000803e3d6000fd5b505050505b508061119381611ba5565b9150506110c3565b60408051602081018490529081018290526000906060015b60408051601f1981840301815291905280516020909101207f86425bff6b57326c7859e89024fe4f238ca327a1ae4a230180dd2f0e88aaa7d9189392505050565b60006020821061121a5760208204840193506020828161121657611216611c84565b0691505b508254600882021b602082900380841115610c74576001850154600882021c82179150509392505050565b6040805160018082528183019092526060916000919060208083019080368337019050509050828160008151811061127f5761127f6119a7565b60209081029190910181019190915260408051613a3160f11b818401527f73746f726500000000000000000000000000000000000000000000000000000060228201527f53746f7265486f6f6b73000000000000000000000000000000000000000000006030820152815180820390930183528101905260009061130e90611306906119bd565b8360006115a3565b905061132561132082600084516115dd565b611676565b949350505050565b60008160ff168261133e8560581c90565b1660ff1614905092915050565b600082826040516020016111b3929190611c9a565b82156113da576020831061138a5760208304840193506020838161138657611386611c84565b0692505b82156113da5760208390036000600019600884021c1990506008850281811c91508451811c90508119875416828216178755508183116113cb575050610ed5565b50600194909401939182019190035b5b602081106113fc5781518455600190930192602090910190601f19016113db565b8015610ed5576000600019600883021c198554845182169119161785555050505050565b6000600860018061143360026020611cd5565b61143d9190611cd5565b6114479190611cd5565b6114519190611ce8565b8260ff911c1692915050565b60008282604051602001611472929190611c9a565b60408051601f1981840301815291905280516020909101207f14e2fcc58e58e68ec7edc30c8d50dccc3ce2714a623ec81f46b6a63922d76569189392505050565b600083836040516020016114c8929190611c9a565b604051602081830303815290604052805190602001208260f81b7effffffffffffffffffffffffffffffffffffffffffffffffffffffffffffff19167f3b4102da22e32d82fc925482184f16c09fd4281692720b87d124aef6da48a0f1181860001c90509392505050565b6104908383602084018451611360565b6000600861155360026020611cd5565b61155d9190611ce8565b9190911c919050565b6000602061157583601f611bbf565b61157f9190611cff565b6115899084611bbf565b90505b80831015610490576000835560018301925061158c565b60606113256115b38585856114b3565b6115d6846115c1888861168e565b9060ff166028026038011c64ffffffffff1690565b60006116a1565b60008183111580156115f0575083518211155b611635578383836040517f23230fa300000000000000000000000000000000000000000000000000000000815260040161162c93929190611d21565b60405180910390fd5b602084016116438482611bbf565b905060006116518585611cd5565b6fffffffffffffffffffffffffffffffff1660809290921b9190911795945050505050565b6060600061168783601560006116c4565b9392505050565b600061168761169d848461145d565b5490565b60405160208101601f19603f8584010116604052838252610c748585858461173f565b606060006116d28560801c90565b90506fffffffffffffffffffffffffffffffff851660008582816116f8576116f8611c84565b04905060405193506020840160208202810160405281855260005b82811015611733578451871c825293870193602090910190600101611713565b50505050509392505050565b81156117b157602082106117695760208204840193506020828161176557611765611c84565b0691505b81156117b15760208290036000600019600883021c1990508554600885021b8119845116828216178452508185116117a2575050610ed5565b50600194909401939283900392015b5b602083106117d35783548152600190930192601f19909201916020016117b2565b8215610ed5576000600019600885021c198251865482169119161782525050505050565b60006020828403121561180957600080fd5b81357fffffffff000000000000000000000000000000000000000000000000000000008116811461168757600080fd5b634e487b7160e01b600052604160045260246000fd5b60006020828403121561186157600080fd5b813567ffffffffffffffff8082111561187957600080fd5b818401915084601f83011261188d57600080fd5b81358181111561189f5761189f611839565b604051601f8201601f19908116603f011681019083821181831017156118c7576118c7611839565b816040528281528760208487010111156118e057600080fd5b826020860160208301376000928101602001929092525095945050505050565b60006020828403121561191257600080fd5b5035919050565b60005b8381101561193457818101518382015260200161191c565b50506000910152565b60008151808452611955816020860160208601611919565b601f01601f19169290920160200192915050565b83815273ffffffffffffffffffffffffffffffffffffffff8316602082015260606040820152600061199e606083018461193d565b95945050505050565b634e487b7160e01b600052603260045260246000fd5b805160208083015191908110156119de576000198160200360031b1b821691505b50919050565b600082516119f6818460208701611919565b9190910192915050565b600081518084526020808501945080840160005b83811015611a3057815187529582019590820190600101611a14565b509495945050505050565b85815260a060208201526000611a5460a0830187611a00565b8281036040840152611a66818761193d565b90508460608401528281036080840152611a80818561193d565b98975050505050505050565b85815260a060208201526000611aa560a0830187611a00565b60ff861660408401528281036060840152611ac0818661193d565b9150508260808301529695505050505050565b8281526040602082015260006113256040830184611a00565b608081526000611aff6080830187611a00565b8281036020840152611b11818761193d565b90508460408401528281036060840152611b2b818561193d565b979650505050505050565b86815260c060208201526000611b4f60c0830188611a00565b8281036040840152611b61818861193d565b90508560608401528281036080840152611b7b818661193d565b9150508260a0830152979650505050505050565b634e487b7160e01b600052601160045260246000fd5b60006000198203611bb857611bb8611b8f565b5060010190565b808201808211156101e0576101e0611b8f565b606081526000611be56060830186611a00565b65ffffffffffff851660208401528281036040840152611c05818561193d565b9695505050505050565b848152608060208201526000611c286080830186611a00565b65ffffffffffff851660408401528281036060840152611b2b818561193d565b6020815260006116876020830184611a00565b838152606060208201526000611c746060830185611a00565b9050826040830152949350505050565b634e487b7160e01b600052601260045260246000fd5b82815260006020808301845182860160005b82811015611cc857815184529284019290840190600101611cac565b5091979650505050505050565b818103818111156101e0576101e0611b8f565b80820281158282048414176101e0576101e0611b8f565b600082611d1c57634e487b7160e01b600052601260045260246000fd5b500490565b606081526000611d34606083018661193d565b6020830194909452506040015291905056fea2646970667358221220a4fec7b49bc32d3eda03ecc32310d518a3081721db3e79e8703b2830232f743b64736f6c63430008150033",
    "linkReferences": {}
  },
  "methodIdentifiers": {
    "_msgSender()": "119df25f",
    "_msgValue()": "45ec9354",
    "_world()": "e1af802c",
    "addTask(string)": "67238562",
    "completeTask(bytes32)": "7c0390f7",
    "deleteTask(bytes32)": "e64f15a2",
    "resetTask(bytes32)": "ec5c29ce",
    "supportsInterface(bytes4)": "01ffc9a7"
  },
  "id": 196
}