{
  "abi": [
    {
      "inputs": [
        {
          "internalType": "bytes",
          "name": "data",
          "type": "bytes"
        },
        {
          "internalType": "uint256",
          "name": "start",
          "type": "uint256"
        },
        {
          "internalType": "uint256",
          "name": "end",
          "type": "uint256"
        }
      ],
      "name": "Slice_OutOfBounds",
      "type": "error"
    },
    {
      "anonymous": false,
      "inputs": [
        {
          "indexed": true,
          "internalType": "ResourceId",
          "name": "tableId",
          "type": "bytes32"
        },
        {
          "indexed": false,
          "internalType": "bytes32[]",
          "name": "keyTuple",
          "type": "bytes32[]"
        },
        {
          "indexed": false,
          "internalType": "uint48",
          "name": "start",
          "type": "uint48"
        },
        {
          "indexed": false,
          "internalType": "bytes",
          "name": "data",
          "type": "bytes"
        }
      ],
      "name": "Store_SpliceStaticData",
      "type": "event"
    },
    {
      "inputs": [],
      "name": "_msgSender",
      "outputs": [
        {
          "internalType": "address",
          "name": "sender",
          "type": "address"
        }
      ],
      "stateMutability": "view",
      "type": "function"
    },
    {
      "inputs": [],
      "name": "_msgValue",
      "outputs": [
        {
          "internalType": "uint256",
          "name": "value",
          "type": "uint256"
        }
      ],
      "stateMutability": "pure",
      "type": "function"
    },
    {
      "inputs": [],
      "name": "_world",
      "outputs": [
        {
          "internalType": "address",
          "name": "",
          "type": "address"
        }
      ],
      "stateMutability": "view",
      "type": "function"
    },
    {
      "inputs": [],
      "name": "getUniqueEntity",
      "outputs": [
        {
          "internalType": "bytes32",
          "name": "",
          "type": "bytes32"
        }
      ],
      "stateMutability": "nonpayable",
      "type": "function"
    },
    {
      "inputs": [
        {
          "internalType": "bytes4",
          "name": "interfaceId",
          "type": "bytes4"
        }
      ],
      "name": "supportsInterface",
      "outputs": [
        {
          "internalType": "bool",
          "name": "",
          "type": "bool"
        }
      ],
      "stateMutability": "pure",
      "type": "function"
    }
  ],
  "bytecode": {
    "object": "0x608060405234801561001057600080fd5b50611160806100206000396000f3fe608060405234801561001057600080fd5b50600436106100675760003560e01c806345ec93541161005057806345ec9354146100c1578063490923cd146100d6578063e1af802c146100de57600080fd5b806301ffc9a71461006c578063119df25f14610094575b600080fd5b61007f61007a366004610e03565b6100e6565b60405190151581526020015b60405180910390f35b61009c61017f565b60405173ffffffffffffffffffffffffffffffffffffffff909116815260200161008b565b36601f1901355b60405190815260200161008b565b6100c861018e565b61009c6102a1565b60007fffffffff0000000000000000000000000000000000000000000000000000000082167fb421288000000000000000000000000000000000000000000000000000000000148061017957507fffffffff0000000000000000000000000000000000000000000000000000000082167f01ffc9a700000000000000000000000000000000000000000000000000000000145b92915050565b60006101896102ab565b905090565b60408051613a3160f11b60208201527f756e69717565456e74697479000000000000000000000000000000000000000060228201527f7461626c6500000000000000000000000000000000000000000000000000000060308201526000918291610210910160405160208183030381529060405261020b90610e45565b6102dd565b61021b906001610e9b565b60408051613a3160f11b60208201527f756e69717565456e74697479000000000000000000000000000000000000000060228201527f7461626c65000000000000000000000000000000000000000000000000000000603082015291925061029c910160405160208183030381529060405261029690610e45565b82610322565b919050565b600061018961037e565b7fffffffffffffffffffffffffffffffffffffffffffffffffffffffffffffffcc36013560601c806102da5750335b90565b60408051600080825260208201909252600061031a8483837e200100200000000000000000000000000000000000000000000000000000006103c5565b949350505050565b6040805160008082526020820183529181018390529061037990849083906060820160408051601f198184030181529190527e2001002000000000000000000000000000000000000000000000000000000061049c565b505050565b7f629a4c26e296b22a8e0856e9f6ecb2d1008d7e00081111962cd175fa7488e1755460009073ffffffffffffffffffffffffffffffffffffffff168061029c573391505090565b6000806103d061037e565b90503073ffffffffffffffffffffffffffffffffffffffff821603610403576103fb8686868661056c565b91505061031a565b6040517f8c364d5900000000000000000000000000000000000000000000000000000000815273ffffffffffffffffffffffffffffffffffffffff821690638c364d599061045b908990899089908990600401610ee9565b602060405180830381865afa158015610478573d6000803e3d6000fd5b505050506040513d601f19601f820116820180604052508101906103fb9190610f18565b60006104a661037e565b90503073ffffffffffffffffffffffffffffffffffffffff8216036104d7576104d286868686866105a2565b610564565b6040517f390baae000000000000000000000000000000000000000000000000000000000815273ffffffffffffffffffffffffffffffffffffffff82169063390baae0906105319089908990899089908990600401610f77565b600060405180830381600087803b15801561054b57600080fd5b505af115801561055f573d6000803e3d6000fd5b505050505b505050505050565b600061059961057b86866105be565b60ff858116601b0360080285901c166105948587610614565b610657565b95945050505050565b6105b785856105b18487610614565b856106a8565b5050505050565b600082826040516020016105d3929190610fbe565b60408051601f1981840301815291905280516020909101207f86425bff6b57326c7859e89024fe4f238ca327a1ae4a230180dd2f0e88aaa7d9189392505050565b600080805b8360ff1681101561064f5761063b60ff601b83900360080287901c1683610e9b565b91508061064781610ff9565b915050610619565b509392505050565b60006020821061067d5760208204840193506020828161067957610679611013565b0691505b508254600882021b60208290038084111561064f576001850154600882021c82179150509392505050565b60006106b485856105be565b9050847f8c0b5119d4cec7b284c6b1b39252a03d1e2f2d7451a5895562524c113bb952be8585856040516106ea93929190611042565b60405180910390a2613a3160f11b857fffff00000000000000000000000000000000000000000000000000000000000016146107265750610905565b60006107318661090b565b905060005b81518110156108105760008282815181106107535761075361107f565b6020026020010151905061077f6004826affffffffffffffffffffff19166109eb90919063ffffffff16565b156107fd576040517f964f667d000000000000000000000000000000000000000000000000000000008152606082901c9063964f667d906107ca908b908b908b908b906004016110ae565b600060405180830381600087803b1580156107e457600080fd5b505af11580156107f8573d6000803e3d6000fd5b505050505b508061080881610ff9565b915050610736565b50610824828565ffffffffffff1685610a09565b60005b81518110156109015760008282815181106108445761084461107f565b602002602001015190506108706008826affffffffffffffffffffff19166109eb90919063ffffffff16565b156108ee576040517fa8ba8721000000000000000000000000000000000000000000000000000000008152606082901c9063a8ba8721906108bb908b908b908b908b906004016110ae565b600060405180830381600087803b1580156108d557600080fd5b505af11580156108e9573d6000803e3d6000fd5b505050505b50806108f981610ff9565b915050610827565b5050505b50505050565b604080516001808252818301909252606091600091906020808301908036833701905050905082816000815181106109455761094561107f565b60209081029190910181019190915260408051613a3160f11b818401527f73746f726500000000000000000000000000000000000000000000000000000060228201527f53746f7265486f6f6b7300000000000000000000000000000000000000000000603082015281518082039093018352810190526000906109d4906109cc90610e45565b836000610a19565b905061031a6109e68260008451610a53565b610aec565b60008160ff16826109fc8560581c90565b1660ff1614905092915050565b6103798383602084018451610b04565b606061031a610a29858585610bc4565b610a4c84610a378888610c44565b9060ff166028026038011c64ffffffffff1690565b6000610c57565b6000818311158015610a66575083518211155b610aab578383836040517f23230fa3000000000000000000000000000000000000000000000000000000008152600401610aa2939291906110f2565b60405180910390fd5b60208401610ab98482610e9b565b90506000610ac78585611117565b6fffffffffffffffffffffffffffffffff1660809290921b9190911795945050505050565b60606000610afd8360156000610c7a565b9392505050565b8215610b7e5760208310610b2e57602083048401935060208381610b2a57610b2a611013565b0692505b8215610b7e5760208390036000600019600884021c1990506008850281811c91508451811c9050811987541682821617875550818311610b6f575050610905565b50600194909401939182019190035b5b60208110610ba05781518455600190930192602090910190601f1901610b7f565b8015610905576000600019600883021c198554845182169119161785555050505050565b60008383604051602001610bd9929190610fbe565b604051602081830303815290604052805190602001208260f81b7effffffffffffffffffffffffffffffffffffffffffffffffffffffffffffff19167f3b4102da22e32d82fc925482184f16c09fd4281692720b87d124aef6da48a0f1181860001c90509392505050565b6000610afd610c538484610cf5565b5490565b60405160208101601f19603f858401011660405283825261064f85858584610d4b565b60606000610c888560801c90565b90506fffffffffffffffffffffffffffffffff85166000858281610cae57610cae611013565b04905060405193506020840160208202810160405281855260005b82811015610ce9578451871c825293870193602090910190600101610cc9565b50505050509392505050565b60008282604051602001610d0a929190610fbe565b60408051601f1981840301815291905280516020909101207f14e2fcc58e58e68ec7edc30c8d50dccc3ce2714a623ec81f46b6a63922d76569189392505050565b8115610dbd5760208210610d7557602082048401935060208281610d7157610d71611013565b0691505b8115610dbd5760208290036000600019600883021c1990508554600885021b811984511682821617845250818511610dae575050610905565b50600194909401939283900392015b5b60208310610ddf5783548152600190930192601f1990920191602001610dbe565b8215610905576000600019600885021c198251865482169119161782525050505050565b600060208284031215610e1557600080fd5b81357fffffffff0000000000000000000000000000000000000000000000000000000081168114610afd57600080fd5b80516020808301519190811015610e66576000198160200360031b1b821691505b50919050565b7f4e487b7100000000000000000000000000000000000000000000000000000000600052601160045260246000fd5b8082018082111561017957610179610e6c565b600081518084526020808501945080840160005b83811015610ede57815187529582019590820190600101610ec2565b509495945050505050565b848152608060208201526000610f026080830186610eae565b60ff949094166040830152506060015292915050565b600060208284031215610f2a57600080fd5b5051919050565b6000815180845260005b81811015610f5757602081850181015186830182015201610f3b565b506000602082860101526020601f19601f83011685010191505092915050565b85815260a060208201526000610f9060a0830187610eae565b60ff861660408401528281036060840152610fab8186610f31565b9150508260808301529695505050505050565b82815260006020808301845182860160005b82811015610fec57815184529284019290840190600101610fd0565b5091979650505050505050565b6000600019820361100c5761100c610e6c565b5060010190565b7f4e487b7100000000000000000000000000000000000000000000000000000000600052601260045260246000fd5b6060815260006110556060830186610eae565b65ffffffffffff8516602084015282810360408401526110758185610f31565b9695505050505050565b7f4e487b7100000000000000000000000000000000000000000000000000000000600052603260045260246000fd5b8481526080602082015260006110c76080830186610eae565b65ffffffffffff8516604084015282810360608401526110e78185610f31565b979650505050505050565b6060815260006111056060830186610f31565b60208301949094525060400152919050565b8181038181111561017957610179610e6c56fea26469706673582212204aa33746bb7ed86e0ecf80134c61cd9f3e4da1c14692804b40ad72437eb073f164736f6c63430008150033",
    "linkReferences": {}
  },
  "methodIdentifiers": {
    "_msgSender()": "119df25f",
    "_msgValue()": "45ec9354",
    "_world()": "e1af802c",
    "getUniqueEntity()": "490923cd",
    "supportsInterface(bytes4)": "01ffc9a7"
  },
  "id": 35
}